:10008F0020260857656C636F6D6520746F204E6F67
:10009F00727468776573742041264620556E6976B1
:1000AF00657273697479212400203E2E57656C6345
:1000BF006F6D6520746F20436F6C6C656765206F83
:1000CF0066204D656368616E6963616C20616E6463
:1000DF0020456C656374726F6E696320456E676946
:0A00EF006E656572696E67212400DA
:1000FA00E4FFFED29074082FF8E6FD6424600D8FA9
:10010A00828E83EDF00FBF00010E80E9E4FEFF74DA
:10011A002E2FF8E6FD6424601274502FF582E43E17
:0F012A00F583EDF00FBF00010E80E4C29080FE60
:03000000020003F8
:0C000300787FE4F6D8FD75816B02004A9E
:10000F000200FAE493A3F8E493A34003F68001F20D
:10001F0008DFF48029E493A3F85407240CC8C333F2
:10002F00C4540F4420C8834004F456800146F6DFC1
:10003F00E4800B010204081020408090008FE47EC2
:10004F00019360BCA3FF543F30E509541FFEE493B6
:10005F00A360010ECF54C025E060A840B8E493A37D
:10006F00FAE493A3F8E493A3C8C582C8CAC583CAA8
:10007F00F0A3C8C582C8CAC583CADFE9DEE780BE60
:0100F9000006
:00000001FF
