:03000300010800F1
:1000AA00758915758CEC758A78758D4B758BFDD2B3
:1000BA00AFD2A9D2ABD2B9D28CE508B408FBD290A0
:0900CA00E4F508C28CC28E80F03E
:03000B0002000EE2
:0B000E00D28EC290758CEC758A78329F
:03001B000200D30D
:0900D3000508758D4B758BFD329B
:0300000002001EDD
:0C001E00787FE4F6D8FD758108020065CB
:10002A000200AAE493A3F8E493A34003F68001F242
:10003A0008DFF48029E493A3F85407240CC8C333D7
:10004A00C4540F4420C8834004F456800146F6DFA6
:10005A00E4800B0102040810204080900003E47E33
:10006A00019360BCA3FF543F30E509541FFEE4939B
:10007A00A360010ECF54C025E060A840B8E493A362
:10008A00FAE493A3F8E493A3C8C582C8CAC583CA8D
:10009A00F0A3C8C582C8CAC583CADFE9DEE780BE45
:0100060000F9
:00000001FF
