:10018C00C0F9A4B0999282F880908883C6A1868E1B
:10015700D3EF9400EE940040147D737C00ED1D7086
:0D016700011CED4C70F7EF1F70E61E80E3E9
:010174002268
:10012A00E4FFFEC2B07D327C00ED1D70011CED4C77
:10013A0070F7D2B07C007D32ED1D70011CED4C7061
:0C014A00F70FBF00010EEF64324E70D7BB
:010156002286
:100003007590F08590085308F0E50864F060077F69
:100013000A7E001201577590FE8590085308F0E59B
:100023000864F06035E5082490601B24C060122446
:10003300E0600924F07012E4F509800D7509018070
:10004300087509028003750903E50864F0600885F3
:1000530090085308F080F212012A7590FD859008EC
:100063005308F0E50864F06035E5082490601B242C
:10007300C0601224E0600924F07012750904800D39
:1000830075090580087509068003750907E5086485
:10009300F060088590085308F080F212012A7590E9
:1000A300FB8590085308F0E50864F06035E5082403
:1000B30090601B24C0601224E0600924F070127564
:1000C3000908800D750909800875090A80037509F7
:1000D3000BE50864F060088590085308F080F2127D
:1000E300012A7590F78590085308F0E50864F060DD
:1000F30035E5082490601B24C0601224E0600924C5
:10010300F0701275090C800D75090D800875090EC4
:10011300800375090FE50864F060088590085308AB
:07012300F080F212012A2214
:100175007580BF120003E509C3941050F6E5099098
:07018500018C93F58080EC72
:0300000002019C5E
:0C019C00787FE4F6D8FD7581090201753A
:00000001FF
